S00D000074657374322E7372656325
S11300000C942A000C943F000C943F000C943F0085
S11300100C943F000C943F000C943F000C943F0060
S11300200C943F000C943F000C943F000C943F0050
S11300300C943F000C943F000C943F000C943F0040
S11300400C943F000C943F000C943F000C943F0030
S11300500C943F0011241FBECFE5D8E0DEBFCDBF16
S113006011E0A0E6B0E0E2E5F4E002C005900D92F4
S1130070A435B107D9F70E94FE000C9427020C9412
S11300800000CF93DF93CDB7DEB7E8970FB6F894AF
S1130090DEBF0FBECDBF88E0E0E6F0E0DE011196E2
S11300A001900D928A95E1F788E0E8E6F0E0DE0140
S11300B0199601900D928A95E1F788E0E0E7F0E067
S11300C0DE01519601900D928A95E1F788E0E8E708
S11300D0F0E0DE01599601900D928A95E1F788E0EF
S11300E0E0E8F0E0DE01919601900D928A95E1F747
S11300F088E0E8E8F0E0DE01999601900D928A9597
S1130100E1F788E0E0E9F0E0DE01D19601900D929C
S11301108A95E1F70E945601BE016F5F7F4F80E030
S11301200E94B201BE01675F7F4F81E00E94B2016D
S1130130BE016F5E7F4F82E00E94B201BE01675E26
S11301407F4F83E00E94B201BE016F5D7F4F84E068
S11301500E94B201BE01675D7F4F85E00E94B2013B
S1130160BE016F5C7F4F86E00E94B201E8960FB635
S1130170F894DEBF0FBECDBFDF91CF910895FF92FB
S11301800F931F93CF93DF930E944100F12C2CC057
S11301906D2F70E04AE050E0C8010E94E701D82FBB
S11301A0AC0155276C2F8F2D0E947C0183ED90E3C9
S11301B00197F1F700C00000CF5F0F5F1F4FC930F8
S11301C039F747EF4C0F6C2F8F2D0E94CD0183ED33
S11301D090E30197F1F700C00000CF5FC13189F7C8
S11301E0F39492E0F91621F001E010E0C0E0D0CFE2
S11301F0DF91CF911F910F91FF9008950E945601B6
S11302000E94980148E950E060E080E00E947C018F
S11302102FE38DE093E0215080409040E1F700C04F
S113022000000E94980183E294EF0197F1F700C067
S113023000000E94BF009FE32DE083E09150204026
S11302408040E1F700C000000E94980183E294EF2F
S11302500197F1F700C00000ECCF88BBA898A998DB
S1130260AE9A0000AE9883EF91E00197F1F700C0D9
S11302700000089588BBA89AA998AE9A0000AE9889
S113028083EF91E00197F1F700C000000895CF9348
S1130290DF93EC018881882331F021960E943A0192
S11302A089918111FBCFDF91CF9108958FEF84BBAA
S11302B087BB87E893E10197F1F700C0000088E36A
S11302C00E942D018CE00E942D0186E00E942D01E8
S11302D081E00E942D0183EF91E00197F1F700C0C6
S11302E0000080E80E942D0180E80E942D0182E533
S11302F091E00E9447010895CF93DF93EA018111B1
S113030008C0603178F4862F8F7080680E942D01B8
S113031009C0813039F4603128F4862F8F70806CE5
S11303200E942D01CE010E944701DF91CF910895D3
S11303308CE00E942D0186E00E942D0181E00E9444
S11303402D0183EF91E00197F1F700C0000080E8F0
S11303500E942D0180E80E942D0182E591E00E9417
S1130360470108950F931F93CF93DF93883080F450
S11303708B01880F880F880F805C0E942D01E80193
S1130380085F1F4F89910E943A01C017D107D1F726
S1130390DF91CF911F910F910895CF93C42F8111B5
S11303A008C0603178F4862F8F7080680E942D0118
S11303B009C0813039F4603128F4862F8F70806C45
S11303C00E942D018C2F0E943A01CF91089545324D
S11303D0510520F4423010F00C94F201FB0110821C
S11303E0CB010895BB274A3031F4992322F4BDE2AE
S11303F0909581959F4F0C94FE01BB27FB015527D7
S1130400AA27880F991FAA1FA41710F0A41B83956D
S11304105051B9F7A05DAA3308F0A95DA1930097E4
S113042079F7B111B1931192CB010C941702DC014D
S1130430FC01672F71917723E1F7329704C07C9117
S11304406D9370836291AE17BF07C8F30895F89453
S1050450FFCFD8
S11304521715151515151700121212121212120081
S1130462171111171414170017111117111117006E
S1130472151515171111110017141417111117005E
S11304821714141715151700415652204C434420D3
S11304926C696272617279005F4C43445F434C45FC
S11304A24152005F4C43445F52455455524E5F489B
S11304B24F4D45005F4C43445F435552534F525F87
S11304C24F4646005F4C43445F424C494E4B5F43A8
S11304D25552534F525F4F4E005F4C43445F4D4F52
S11304E256455F435552534F525F4C454654005F45
S11304F24C43445F4D4F56455F435552534F525FF1
S11305025249474854005F4C43445F5455524E5F2E
S11305124F4E005F4C43445F5455524E5F4F464624
S1130522005F4C43445F53484946545F4C4546542C
S1130532005F4C43445F53484946545F524947481D
S1070542540020003D
S9030000FC
