:100000000C942A000C943F000C943F000C943F0089
:100010000C943F000C943F000C943F000C943F0064
:100020000C943F000C943F000C943F000C943F0054
:100030000C943F000C943F000C943F000C943F0044
:100040000C943F000C943F000C943F000C943F0034
:100050000C943F0011241FBECFE5D8E0DEBFCDBF1A
:1000600011E0A0E6B0E0EAE6F4E002C005900D92EF
:10007000A435B107D9F70E9404010C9433020C9403
:100080000000CF93DF93CDB7DEB7E8970FB6F894B3
:10009000DEBF0FBECDBF88E0E0E6F0E0DE011196E6
:1000A00001900D928A95E1F788E0E8E6F0E0DE0144
:1000B000199601900D928A95E1F788E0E0E7F0E06B
:1000C000DE01519601900D928A95E1F788E0E8E70C
:1000D000F0E0DE01599601900D928A95E1F788E0F3
:1000E000E0E8F0E0DE01919601900D928A95E1F74B
:1000F00088E0E8E8F0E0DE01999601900D928A959B
:10010000E1F788E0E0E9F0E0DE01D19601900D92A0
:100110008A95E1F70E946201BE016F5F7F4F80E028
:100120000E94BE01BE01675F7F4F81E00E94BE0159
:10013000BE016F5E7F4F82E00E94BE01BE01675E1E
:100140007F4F83E00E94BE01BE016F5D7F4F84E060
:100150000E94BE01BE01675D7F4F85E00E94BE0127
:10016000BE016F5C7F4F86E00E94BE01E8960FB62D
:10017000F894DEBF0FBECDBFDF91CF910895FF92FF
:100180000F931F93CF93DF930E944100F12C32C055
:100190006D2F70E04AE050E0C8010E94F301D82FB3
:1001A000AC0155276C2F8F2D0E9488012FEF80E71F
:1001B00092E0215080409040E1F700C00000CF5F06
:1001C0000F5F1F4FC93021F747EF4C0F6C2F8F2D5A
:1001D0000E94D9012FEF80E792E0215080409040AB
:1001E000E1F700C00000CF5FC13171F7F39422E066
:1001F000F21621F001E010E0C0E0CACFDF91CF910C
:100200001F910F91FF9008950E9462010E94A40126
:1002100048E950E060E080E00E9488012FEF83ED24
:1002200090E3215080409040E1F700C000000E9420
:10023000A4012FEF84E39CE0215080409040E1F73F
:1002400000C000000E94BF002FEF83ED90E321501B
:1002500080409040E1F700C000000E94A4012FEF11
:1002600084E39CE0215080409040E1F700C0000012
:10027000E9CF88BBA898A998AA9A0000AA9883EF0A
:1002800091E00197F1F700C00000089588BBA89A9B
:10029000A998AA9A0000AA9883EF91E00197F1F734
:1002A00000C000000895CF93DF93EC01888188237C
:1002B00031F021960E94460189918111FBCFDF9197
:1002C000CF9108958FEF84BB87BB87E893E10197B7
:1002D000F1F700C0000088E30E9439018CE00E9421
:1002E000390186E00E94390181E00E94390183EFE3
:1002F00091E00197F1F700C0000080E80E94390109
:1003000080E80E94390182E591E00E94530108953E
:10031000CF93DF93EA01811108C0603178F4862F12
:100320008F7080680E94390109C0813039F46031D2
:1003300028F4862F8F70806C0E943901CE010E94B4
:100340005301DF91CF9108958CE00E94390186E03E
:100350000E94390181E00E94390183EF91E0019709
:10036000F1F700C0000080E80E94390180E80E9497
:10037000390182E591E00E94530108950F931F9384
:10038000CF93DF93883080F48B01880F880F880F1C
:10039000805C0E943901E801085F1F4F89910E942B
:1003A0004601C017D107D1F7DF91CF911F910F916F
:1003B0000895CF93C42F811108C0603178F4862F3F
:1003C0008F7080680E94390109C0813039F4603132
:1003D00028F4862F8F70806C0E9439018C2F0E9428
:1003E0004601CF9108954532510520F4423010F076
:1003F0000C94FE01FB011082CB010895BB274A300B
:1004000031F4992322F4BDE2909581959F4F0C948D
:100410000A02BB27FB015527AA27880F991FAA1F8D
:10042000A41710F0A41B83955051B9F7A05DAA330F
:1004300008F0A95DA193009779F7B111B1931192DA
:10044000CB010C942302DC01FC01672F719177230F
:10045000E1F7329704C07C916D9370836291AE177F
:0A046000BF07C8F30895F894FFCF1A
:10046A00171515151515170012121212121212006D
:10047A00171111171414170017111117111117005A
:10048A00151515171111110017141417111117004A
:10049A001714141715151700415652204C434420BF
:1004AA006C696272617279005F4C43445F434C45E8
:1004BA004152005F4C43445F52455455524E5F4887
:1004CA004F4D45005F4C43445F435552534F525F73
:1004DA004F4646005F4C43445F424C494E4B5F4394
:1004EA005552534F525F4F4E005F4C43445F4D4F3E
:1004FA0056455F435552534F525F4C454654005F31
:10050A004C43445F4D4F56455F435552534F525FDC
:10051A005249474854005F4C43445F5455524E5F1A
:10052A004F4E005F4C43445F5455524E5F4F464610
:10053A00005F4C43445F53484946545F4C45465418
:10054A00005F4C43445F53484946545F5249474809
:04055A005400200029
:00000001FF
